:020000040800F2
:1000000050490020F91F0008692000086D200008F1
:100010007120000875200008792000080000000009
:10002000000000000000000000000000CF0D0008EC
:100030008120000800000000890D0008390D00082B
:100040008D200008912000089520000899200008C4
:100050009D200008A1200008A5200008A920000874
:10006000AD200008B1200008B5200008B920000824
:10007000BD200008C1200008C5200008C9200008D4
:10008000CD200008D1200008D5200008D920000884
:10009000DD200008E1200008E5200008E920000834
:1000A000ED200008F1200008F5200008F9200008E4
:1000B000FD20000801210008052100080921000891
:1000C0000D21000811210008152100081921000840
:1000D0001D210008212100082521000829210008F0
:1000E0002D210008312100083521000839210008A0
:1000F0003D21000841210008452100084921000850
:100100004D210008512100085521000859210008FF
:100110005D210008612100086521000869210008AF
:100120006D2100087121000875210008792100085F
:100130002DE9F04F85B004000D0016001F00DDF81A
:100140003880DDF83C90B6B2B00000F049FC834640
:10015000BBF1000F0DD04C2000F042FC8246BAF1FA
:10016000000F02D0CAF830B005E0584600F0A1FCFC
:1001700001E000208246BAF1000F14D00020039065
:10018000CDF808A0CDF80490CDF800803B00B6B2C1
:1001900032002900200000F00DF8504600F05DF814
:1001A0000120049002E05FF0FF300490049805B055
:1001B000BDE8F08F2DE9F14F0C0015001E000A9FDD
:1001C000DDF82C80DDF83090D9F8300010EB850098
:1001D000001F82465FEADA0A5FEACA0A0020834605
:1001E000BBF1100F0CD21BF804001BEB090181F8C6
:1001F00034001BF80400002802D01BF1010BEFE7CC
:10020000002089F84300052F01D304200700C9F816
:100210002C7019F1040000F0F6FC19F1180000F040
:10022000F2FCC9F81090D7F10500C9F81800C9F818
:1002300024900020C9F84400002089F848003200CA
:100240000099504600F030FDC9F80000B8F1000FE9
:1002500001D0C8F80090BDE8F18F10B5040000F09F
:1002600051FDDFF888060068401CDFF88016086042
:10027000DFF87C06006800280AD1DFF87406046005
:10028000DFF868060068012811D100F0B7FA0EE027
:10029000DFF860060068002809D1E06ADFF8501630
:1002A0000968C96A884202D3DFF844060460DFF8AF
:1002B00048060068401CDFF840160860DFF83C067E
:1002C00000680121E26A91400843DFF830160860B7
:1002D000211DDFF82C06E26A142303FB020000F064
:1002E00095FC00F01CFDDFF80C06006800280FD01C
:1002F000DFF8FC050068C06AE16A884208D25FF056
:100300008050DFF80C160860BFF34F8FBFF36F8F7C
:1003100010BD38B5040000F0F5FC002C03D1DFF867
:10032000D005056800E02500281D00F098FC002895
:1003300012D1DFF8CC05E96A142202FB0100006843
:10034000002809D1DFF8B40500680121EA6A91406C
:100350008843DFF8A8150860A86A002803D015F1C3
:10036000180000F07CFCDFF890050068401CDFF806
:1003700088150860DFF87805006885420CD1291DD2
:10038000DFF8800500F042FCDFF87C050068401CC7
:10039000DFF8741508600BE0DFF850050068401EB8
:1003A000DFF848150860280000F07FFA00F086FAB0
:1003B00000F0B5FCDFF83C05006800280DD0DFF840
:1003C00030050068854208D15FF08050DFF84015A5
:1003D0000860BFF34F8FBFF36F8F31BD38B5040096
:1003E0000025002C08D000F03BF80021200000F090
:1003F00095FA00F03DF80500002D08D15FF080501F
:10040000DFF810150860BFF34F8FBFF36F8F31BD5A
:100410001CB5DFF898050190002000900023802291
:10042000DFF88C150FF2B130FFF782FE0400012CCB
:1004300015D1BF2080F31188BFF34F8FBFF36F8FAB
:100440005FF0FF30DFF86C1508600120DFF8A414BE
:1004500008600020DFF86015086000F03DFC13BD67
:10046000DFF844050068401CDFF83C150860704761
:1004700070B50024002500F045FCDFF82C0500686D
:10048000401EDFF824150860DFF81C05006800280E
:100490005CD1DFF858040068002857D0DFF8040565
:1004A000006800282AD0DFF8FC04C068C068040097
:1004B00014F1180000F0D3FB201D00F0D0FBDFF892
:1004C0003C0400680121E26A91400843DFF82C14E3
:1004D0000860211DDFF82804E26A142303FB0200F0
:1004E00000F094FBE06ADFF808140968C96A8842E2
:1004F000D4D30120DFF8C4140860CFE7002C01D06A
:1005000000F0DCF9DFF8B8040668002E0ED000F029
:1005100021F8002803D00120DFF8A0140860761E1F
:10052000002EF4D10020DFF898140860DFF88C0466
:10053000006800280AD0012005005FF08050DFF835
:10054000D4130860BFF34F8FBFF36F8F00F0E7FB4A
:10055000280070BD2DE9F0410026DFF84C0400684A
:10056000002873D1DFF8A4030068471CDFF89C0360
:100570000760002F16D1DFF84C0400688046DFF8D2
:1005800048040068DFF83C140860DFF83C04C0F859
:100590000080DFF838040068401CDFF83014086081
:1005A00000F08CF9DFF80C040068874240D3DFF8D4
:1005B000140400680068002805D15FF0FF30DFF800
:1005C000F413086034E0DFF8FC030068C068C0681A
:1005D000040060680500AF4203D2DFF8D80305606D
:1005E00026E0201D00F03BFBA06A002803D014F198
:1005F000180000F034FBDFF8040300680121E26A10
:1006000091400843DFF8F4120860211DDFF8F00282
:10061000E26A142303FB020000F0F8FAE06ADFF854
:10062000D0120968C96A8842C1D301200600BEE71A
:10063000DFF8CC02AE490968C96A142202FB010046
:100640000068022809D30120060006E0DFF87003E5
:100650000068401CDFF868130860DFF8600300687A
:10066000002801D0012006003000BDE8F081DFF84D
:1006700038030068002804D00120DFF84013086028
:1006800020E00020DFF8341308609C490968B1FAC3
:1006900081F1D1F11F010800DFF86422142303FB6C
:1006A000002211004A6852684A604A6811F1080342
:1006B0009A4202D14A6852684A604968C968DFF8BC
:1006C000E0221160704738B504000D00DFF8D00259
:1006D000006810F11801200000F0A4FA01212800A0
:1006E00000F01CF931BD70B50400E068C068050079
:1006F00015F1180000F0B3FADFF8AC02006800282A
:1007000013D1281D00F0ABFA7C4800680121EA6A89
:100710009140084379490860291D7948EA6A142301
:1007200003FB020000F072FA05E015F11801DFF892
:10073000740200F06BFA6E480068C06AE96A884289
:1007400006D2012006000120DFF87012086001E0E7
:1007500000200600300070BDDFF8701209680160EB
:10076000DFF85412096841607047F8B504000D00C5
:1007700000F0C8FA65480768286810F1010F02D137
:10078000002006001DE0DFF844020068216888426E
:1007900005D06068874202D30120060011E060683E
:1007A000381A296888420AD22868C01B616808186C
:1007B00028602000FFF7D0FF0020060001E00120A4
:1007C000060000F0ACFA3000F2BD0120DFF8EC11B9
:1007D000086070470000000010B5040000F039F810
:1007E000474800680228F9D35FF08050DFF82411F1
:1007F0000860BFF34F8FBFF36F8FEFE710B5002096
:100800000400052C07D23E48142101FB040000F02F
:10081000EBF9641CF5E7DFF8B80100F0E5F9DFF863
:10082000B40100F0E1F9DFF87C0100F0DDF93548B2
:1008300000F0DAF9DFF8E00000F0D6F9DFF8900117
:10084000DFF880110860DFF88C01DFF87C110860A8
:1008500010BD38B52C480068002825D0FFF700FEF1
:1008600028480068002801D1012400E00024FFF797
:10087000FFFD002CEED100F045FA2248C068C068A8
:100880000500281D00F0EBF918480068401E1749C4
:1008900008601D480068401E1B49086000F03FFAD0
:1008A000280000F002F8D5E731BD10B50400206B38
:1008B00000F0FFF8200000F0FCF810BDDFF8041194
:1008C00009680968002905D15FF0FF31DFF8E420ED
:1008D000116009E0DFF8EC100968C968C968080010
:1008E0004168DFF8D02011607047000024450020E7
:1008F0001445002030450020404500202C450020B4
:1009000018440020B844002020450020284500203D
:1009100004ED00E004ED00E0CC440020F8B5040054
:100920000D00254807681E480068001D00F097F973
:1009300000280BD11A480068274909680122C06ABB
:1009400012FA00F031EA00002349086014F1010FA7
:1009500008D1002D06D012480068011D1F4800F084
:1009600055F91BE0E01906000D4800684660BE42DC
:1009700007D20B480068011D1348006800F052F9C7
:100980000CE007480068011D0E48006800F04AF9B5
:1009900008480068864201D206480660F1BD0000A2
:1009A00014450020A44400204C4500204845002068
:1009B0005C200008444500202845002038450020E0
:1009C00034450020184500201C4500203C450020EF
:1009D0007C440020904400202C450020CC44002082
:1009E0002DE9F04104005FF00008FFF739FD77487A
:1009F0000068002801D100F080F8754800680442C2
:100A000052D1002C0AD073480068041914F0070F63
:100A100004D014F1080014F00701441A002C43D04C
:100A20006D480068A0423FD36C4806006B480068E0
:100A300005006868A04205D22868002802D02E0070
:100A40002D68F6E76148006885422DD0306861491D
:100A5000096808188046286830605E4800684000D1
:100A60006968091B884208D2601907006868001B82
:100A700078606C60380000F077F857480068696863
:100A8000401A554908605448006855490968884229
:100A900003D2514800685249086068684C490968A7
:100AA0000843686000202860FFF7E2FC4046BDE88C
:100AB000F08170B504002600002C1DD04548006868
:100AC000361A3500686842490968084214D0286817
:100AD000002811D168683E49096888436860FFF7BB
:100AE000BFFC3D480068696808183B490860280059
:100AF00000F03AF8FFF7BCFC70BD30B44FF4884307
:100B0000384C220012F0070F05D0D21DD208D200B7
:100B10009B1A344CE3181100304C216000242F4DF7
:100B20006C605C1822002B4C2468121BD208D20087
:100B3000264C22600024254D2D686C600024234D36
:100B40002D682C600800141A4460204C246804604E
:100B50004468234D2C6044681F4D2C605FF00044B6
:100B60001B4D2C6030BC704710B41C4B1A0013682E
:100B7000834201D21268FAE7110053685B1883427E
:100B800004D153684468E3185360100001004368BF
:100B90005B181468A34211D113680C4C2468A3425B
:100BA00008D0436814686468E318436013681B68DE
:100BB000036005E0054B1B68036001E013680360F8
:100BC000824200D0106010BC70470000E844002052
:100BD000F444002064200008EC440020E04400209D
:100BE000F04400201800002010F1080141605FF07F
:100BF000FF31816010F10801C16010F1080101614D
:100C000000210160704700210161704742684A601D
:100C100093688B60936859609160086103685B1CFE
:100C20000360704710B40B6813F1010F02D104691F
:100C3000220008E010F10804220054682468A3424E
:100C400001D35268F9E754684C604C68A1608A602F
:100C5000516008610468641C046010BC70470100A6
:100C600008698A684B689A604A688B685A6042686B
:100C70008A4201D18A68426000220A610268521EDB
:100C800002600068704750F8041B61B150F8042BF3
:100C9000D30744BFA9F101039A180023091F42F8A2
:100CA000043BFAD1EFE77047001F5FF080730360E9
:100CB000001F4B085B000360001F0FF20D03036071
:100CC0001438026020387047BF2080F31188BFF3CA
:100CD0004F8FBFF36F8FFEE780B52548006850F453
:100CE0007F00234908602248006850F07F40204977
:100CF000086000F035F800201E49086000F077F821
:100D0000002002BDBF2080F31188BFF34F8FBFF3D7
:100D10006F8F18480068401C1649086070471548D6
:100D20000068401E1349086012480068002802D17C
:100D3000002080F31188704780B5BF2080F31188B0
:100D4000BFF34F8FBFF36F8FFFF704FC002803D072
:100D50005FF0805008490860002080F3118801BDD1
:100D600006480749086007200649086070470000E8
:100D700020ED00E01000002004ED00E03F1901002C
:100D800014E000E010E000E0EFF30980BFF36F8FA4
:100D90001D4B1A6820E9F00F106008B54FF0BF0036
:100DA00080F31188BFF34F8FBFF36F8FFFF75FFCA6
:100DB0004FF0000080F31188BDE80840196808680A
:100DC000B0E8F00F80F30988BFF36F8F70470E4BC8
:100DD00019680868B0E8F00F80F30988BFF36F8FD7
:100DE0004FF0000080F311884EF00D0E7047074859
:100DF0000068006880F3088862B661B6BFF34F8F61
:100E0000BFF36F8F00DF00001445002008ED00E005
:100E100070B504000D002600FFF774FF3068F16B19
:100E2000326C02FB010070600020B0633068B0607B
:100E30003068F16B491E326C02FB0100F0605FF01C
:100E4000FF3086F844005FF0FF3086F84500002D43
:100E500012D13069002817D016F11000FFF743FCBB
:100E6000002811D05FF08050DFF8FC120860BFF35B
:100E70004F8FBFF36F8F07E016F11000FFF7B4FE3E
:100E800016F12400FFF7B0FEFFF749FF012070BD07
:100E90002DE9F84304000D001600002D02D10020BA
:100EA000804602E005FB04F0804618F14800FFF799
:100EB00097FD0700002F0AD017F1480081460097E0
:100EC0003300DBB24A462900200000F003F8380066
:100ED000BDE8F2832DE9F04104000D0016001F006B
:100EE000DDF81880002D02D1C8F8008001E0C8F8B4
:100EF0000060C8F83C40C8F8405001214046FFF768
:100F000087FFBDE8F0812DE9F74304000D001E00C6
:100F10005FF00008A146FFF7F5FED9F83800D9F8D0
:100F20003C10884201D3022E26D1320029004846C7
:100F300000F01CF90700D9F8240000280ED019F1A0
:100F40002400FFF7D0FB002812D05FF080508649C4
:100F50000860BFF34F8FBFF36F8F09E0002F07D0FA
:100F60005FF0805080490860BFF34F8FBFF36F8FF1
:100F7000FFF7D5FE012052E00298002803D1FFF7C9
:100F8000CEFE00204BE0B8F1000F04D100A8FFF71F
:100F9000E3FB01208046FFF7C2FEFFF761FAFFF78F
:100FA000B1FE99F9440010F1010F02D1002089F837
:100FB000440099F9450010F1010F02D1002089F891
:100FC0004500FFF7ACFE02A900A8FFF7CEFB002802
:100FD0001FD1484600F06CF9002814D0029919F18D
:100FE0001000FFF770FB484600F01BF9FFF740FACE
:100FF000002890D15FF080505B490860BFF34F8FAD
:10100000BFF36F8F87E7484600F00BF9FFF730FA20
:1010100081E7484600F005F9FFF72AFA0020BDE80D
:10102000FE832DE9F44783B004000D001E00002765
:10103000A146FFF767FED9F838A0BAF1000F37D004
:10104000D9F80C0080462900484600F0D2F8002E5E
:1010500016D1BAF10100C9F83800D9F810000028FB
:1010600022D019F11000FFF73EFB00281CD05FF0E2
:1010700080503D490860BFF34F8FBFF36F8F13E07F
:10108000C9F80C80D9F8240000280DD019F12400EB
:10109000FFF729FB002807D05FF080503249086035
:1010A000BFF34F8FBFF36F8FFFF739FE012057E07B
:1010B0000398002803D1FFF732FE002050E0002FF4
:1010C00004D100A8FFF748FB01200700FFF727FE27
:1010D000FFF7C6F9FFF716FE99F9440010F1010F6A
:1010E00002D1002089F8440099F9450010F1010F60
:1010F00002D1002089F84500FFF711FE03A900A8DE
:10110000FFF733FB00281FD1484600F0C1F8002844
:1011100014D0039919F12400FFF7D5FA484600F0DE
:1011200080F8FFF7A5F9002883D15FF080500E49C1
:101130000860BFF34F8FBFF36F8F7AE7484600F028
:1011400070F8FFF795F974E7484600F06AF8FFF782
:101150008FF9484600F09CF800283FF46AAF002061
:1011600004B0BDE8F087000004ED00E02DE9F04791
:1011700004000D0016000027A06B8046206C00289C
:1011800031D0002E13D1D4F84090D4F808A04A46AC
:101190002900504600F09EF8A068216C0818A06055
:1011A000A068616888421ED32068A0601BE0D4F864
:1011B0004090D4F80CA04A462900504600F08AF826
:1011C000E068216C401AE060E0682168884203D240
:1011D0006068216C401AE060022E04D1B8F1000F63
:1011E00001D0B8F1010818F10100A0633800BDE892
:1011F000F087F8B504000D00206C002810D0E068DE
:10120000216C0818E060E0686168884201D32068BA
:10121000E060266CE76832003900280000F05AF8D8
:10122000F1BD70B50400FFF76DFD94F945506DB246
:10123000012D0CDB606A002809D014F12400FFF7AF
:1012400052FA002801D0FFF7C0FA6D1EEFE75FF0F9
:10125000FF3084F84500FFF762FDFFF753FD94F976
:10126000446076B2012E0CDB2069002809D014F10D
:101270001000FFF738FA002801D0FFF7A6FA761E13
:10128000EFE75FF0FF3084F84400FFF748FD70BDE2
:1012900038B50400FFF736FDA06B002802D101200D
:1012A000050001E000200500FFF739FD280032BDF0
:1012B00038B50400FFF726FDA06BE16B884202D130
:1012C0000120050001E000200500FFF728FD2800AF
:1012D00032BD000062B38B0708D0521E11F8013BEB
:1012E00000F8013B00F024808B07F6D1830740F023
:1012F000208000BF103A07D330B4B1E83810103A5C
:10130000A0E83810F9D230BC530724BFB1E8081068
:10131000A0E8081044BF51F8043B40F8043BD20752
:1013200024BF31F8022B20F8022B44BF0B78037046
:101330007047083A07D3B1E80810083A40F8043B70
:1013400040F804CBF7D25307E4E70000DFF8E402EB
:10135000006850F00100DFF8DC120860DFF8D80206
:101360000068DFF8D8120840DFF8CC120860DFF818
:10137000C4020068DFF8C8120840DFF8B81208603D
:10138000DFF8B002006830F48020DFF8A8120860AF
:10139000DFF8A402006830F4FE00DFF89C12086059
:1013A0005FF41F00DFF89C1208607047DFF88412BA
:1013B000096831F48031DFF87C221160DFF87412A3
:1013C000096831F48021DFF86C2211600100B1F569
:1013D000803F03D0B1F5802F09D011E0DFF854121F
:1013E000096851F48031DFF84C22116008E0DFF821
:1013F0004412096851F4A021DFF838221160FFE798
:10140000704738B50020009000240025312000F0FE
:10141000E8F805000098401C00900098B0F5A06F17
:1014200002D0EDB2002DF1D0312000F0DAF8002822
:1014300002D00120040001E0002004002000C0B21E
:1014400032BD0022DFF8F0311B681A0032F47C1242
:1014500051EA00031A43DFF8E0311A607047C0B266
:10146000DFF8E411086070470021734A1268110028
:10147000890889000143704A116070476E4800680E
:1014800010F00C00704700216B4A1268110031F017
:10149000F0010143684A116070470021664A1268F2
:1014A000110031F4E0610143634A1160704700218B
:1014B000614A1268110031F4605151EAC0015E4A7C
:1014C0001160704770B400210022002300245A4D9F
:1014D0002D6815F00C0529000D00002D04D0042DF9
:1014E00005D0082D06D026E0594D056025E0584D61
:1014F000056022E0504D2D6815F470152A004E4D00
:101500002D6815F480352B00920C921C002B04D111
:10151000504D05FB02F505600CE0474D2D68AD030D
:1015200004D54C4D05FB02F5056003E0484D05FB75
:1015300002F5056001E0464D05603F4D2D6815F050
:10154000F00529000909444D4D5D2C0005682E0069
:10155000E6404660384D2D6815F4E0652900090A1B
:101560003D4D4D5D2C0045682E00E6408660324DB5
:101570002D6815F460552900C90A374D4D5D2C00C2
:1015800045682E00E640C6602B4D2D6815F4404599
:101590002900890B314D4D5D2C00C568B5FBF4F574
:1015A000056170BC7047C9B2002905D02C4A126889
:1015B00002432B4B1A6004E0294A12688243284BED
:1015C0001A607047C9B2002905D0264A1268024342
:1015D000244B1A6004E0234A12688243214B1A60AC
:1015E000704710B40100002200230020C9B24C094A
:1015F000E4B22200012A03D10E4C2468230008E043
:10160000022A03D1114C2468230002E0164C2468FE
:101610002300C9B211F01F0422001C00D440E407CB
:1016200002D50124200001E000242000C0B210BC3B
:101630007047000000100240041002400000FFF854
:10164000FFFFF6FE081002406000424220100240F8
:1016500000127A0000093D00000000201400002064
:10166000181002401C1002402410024010B5FFF771
:101670006DFE5FF48030FFF799FEFFF7C2FE0400B5
:10168000E4B2012C24D1102000F0F6F8022000F082
:10169000E7F80020FFF7F7FE0020FFF708FF4FF400
:1016A0008060FFF7FAFE5FF4E0115FF48030FFF72F
:1016B000C8FE0120FFF7D3FE3920FFF792FF002874
:1016C000FAD00220FFF7D0FEFFF7D8FE0828FBD1A2
:1016D00001214CF6FD10FFF766FF01213948FFF7A5
:1016E00071FF10BD10B586B004004FF40070ADF866
:1016F000000003208DF8020018208DF8030000A9D7
:10170000314800F0CBF84FF48060ADF800000420C1
:101710008DF8030000A92C4800F0C0F802940020C6
:10172000ADF80C000020ADF80E000020ADF8100060
:101730000020ADF814000C20ADF8120002A92348D7
:1017400000F048F90121214800F0B6F9012240F2E9
:1017500025511E4800F0BEF925208DF80400012017
:101760008DF8070001208DF8050001208DF8060096
:1017700001A800F0EDF906B010BD10B50400E4B208
:10178000210089B2114800F0D0F980210F4800F003
:10179000D0F90128F9D110BD70B504000D00002664
:1017A000AE420DDA217889B2084800F0BEF9641C17
:1017B0008021064800F0BDF90128F9D1761CEFE739
:1017C00070BD00000E4020000008014000380140BC
:1017D0003030C0B27047010000220123002901D03F
:1017E000012901D1012006E08B4203D20A204343A4
:1017F000521CF9E7100070470100012000228A42C4
:1018000003DA0A235843521CF9E770472DE9F843DD
:1018100004000025260000272000FFF7DCFF80469B
:101820005FF00009C14519DAB8EB0900401EFFF767
:10183000E3FF96FBF0F0FFF7CBFF05002800C0B2F6
:10184000FFF79BFFB8EB0900401EFFF7D5FF96FBA3
:10185000F0F100FB116619F10109E3E7BDE8F1833E
:101860000021DFF834201268110011F03801014323
:10187000DFF8242011607047DFF81C10096831F090
:101880001001DFF814201160DFF80C100968014323
:10189000DFF804201160704700200240F0B50027F7
:1018A0000022002300240025002691F803C01CF02C
:1018B0000F0C674691F803C05FEACC6C03D591F832
:1018C00002C05CEA070791F800C05FEA0C6C3AD0EE
:1018D000D0F800C065465FF0000C6346082B31D29B
:1018E0005FF0010C1CFA03FC6446B1F800C014EA76
:1018F0000C0C6246A24223D15FEA830C64465FF07F
:101900000F0C1CFA04FC6646B54317FA04FC5CEAAB
:10191000050591F803C0BCF1280F06D15FF0010C5A
:101920001CFA03FCC0F814C00AE091F803C0BCF133
:10193000480F05D15FF0010C1CFA03FCC0F810C081
:101940005B1CCBE70560B1F800C0BCF1FF0F3FDDC9
:10195000D0F804C065465FF0000C6346082B36D211
:101960005FF0010C13F1080E1CFA0EFC6446B1F88E
:1019700000C014EA0C0C6246A24226D15FEA830C36
:1019800064465FF00F0C1CFA04FC6646B54317FA78
:1019900004FC5CEA050591F803C0BCF1280F07D1EF
:1019A0005FF0010C13F1080E1CFA0EFCC0F814C015
:1019B00091F803C0BCF1480F07D15FF0010C13F19F
:1019C000080E1CFA0EFCC0F810C05B1CC6E7456090
:1019D000F0BD00002DE9F04786B004000D000026A0
:1019E00000275FF000085FF000095FF0000AA88997
:1019F0000028A246208A06004CF6FF700640E888C0
:101A000006432682A08906004EF6F3100640A888F9
:101A100029890843698908430643A681A08A0600EC
:101A20004FF6FF400640A8890643A68200A8FFF7AC
:101A300049FD2048824502D10398070001E0029841
:101A40000700A089000408D5192000FB07F02968C9
:101A50004900B0FBF1F0804607E0192000FB07F0D9
:101A600029688900B0FBF1F080466420B8FBF0F0F3
:101A7000000106003009642101FB10808146A08925
:101A8000000409D55FEAC90032306421B0FBF1F0EF
:101A900010F00700064308E05FEA091032306421C5
:101AA000B0FBF1F010F00F000643268106B0BDE850
:101AB000F087000000380140C9B2002904D08289B3
:101AC00052F40052828104E082894DF6FF731A407D
:101AD00082817047F0B4002300240025002689B2DB
:101AE00040F66A17B94206000F00FFB27F09FFB245
:101AF0003B0089B211F01F073C000127A7403D00C1
:101B0000012B01D10C3604E0022B01D1103600E08C
:101B10001436D2B2002A03D037682F43376002E070
:101B20003768AF433760F0BC7047CA05D20D82807A
:101B300070470200002089B2B1F5007F13880B4284
:101B400002D00123180001E000231800C0B2704742
:101B500070B4002400220F23C178002922D0174935
:101B6000096811F4E061D1F5E061090A0C00D4F1D3
:101B700004010A0019000B00E340417891400C0079
:101B8000817819400C4324010D4905786C540121DA
:101B9000057815F01F05A9400A4D0678761145F81D
:101BA000261009E00121057815F01F05A940064D12
:101BB0000678761145F8261070BC70470CED00E0F1
:101BC00000E400E000E100E080E100E010B582B058
:101BD00004000020009007215448FFF7DDFD00239A
:101BE000002200A952480068FFF78DF951490860AA
:101BF0000098401C00904FF47A70FEF7EFFBEAE784
:101C000010B582B00400002000900F214A48FFF771
:101C1000C3FD0023642200A945480068FFF701FACC
:101C2000444908600098FFF7F1FD4FF47A70FEF721
:101C3000D5FBEAE710B5040005214048FFF7ACFDED
:101C40004FF47A70FEF7CAFBF6E71CB504000721D3
:101C50003B48FFF7A1FD4FF47A70FEF7BFFB394810
:101C600001900120009000234FF40072364937485C
:101C7000FEF75EFAEBE710B50400200000F084F8F0
:101C800001002000FFF788FD022127A0FFF784FD57
:101C90004FF47A70FEF7A2FB2A480068FEF739FB82
:101CA000EBE700B583B02A48019002200090294B51
:101CB0004FF4007228492948FEF73AFA2848019063
:101CC00002200090274B4FF4007227492748FEF767
:101CD0002FFA274801900120009000234FF4007252
:101CE00024492548FEF724FA244801900120009059
:101CF00000234FF4007222492248FEF719FA07BD6B
:101D000080B5FFF7B3FC5FF4E130FFF7EBFC002296
:101D100004210520FFF7BCF805490860FFF7C1FF63
:101D2000FEF776FB002002BD0D0A0000142000081B
:101D3000FC440020F8440020D81F00081C200008A4
:101D400024200008084500202C200008351C00082D
:101D5000004500203C200008342000084B1C0008EF
:101D600004450020E81F000844200008771C0008F4
:101D70000C4500204C200008CD1B00081045002019
:101D800054200008011C000800F10103810704D061
:101D900010F8011B89B18107FAD10268B2F1013153
:101DA000914311F0803F04BF50F8042FF6E710F87C
:101DB000011B11B110F8011BFBE7C01A70470000AE
:101DC00080B54F48006850F001004D4908604D480B
:101DD00000684D4908404B490860494800684B4934
:101DE0000840474908604648006830F4802044496C
:101DF00008604448006830F4FE00424908605FF41F
:101E00001F004349086000F005F85FF00060414999
:101E1000086001BD80B500F001F801BD82B000206E
:101E20000190002000903648006850F4803034491A
:101E300008603348006810F4003000900198401C9E
:101E400001900098002803D10198B0F5A06FF0D15F
:101E50002B480068800302D50120009001E000209B
:101E600000900098012847D12B48006850F01000DE
:101E700029490860284800688008800026490860D1
:101E80002548006850F00200234908601D4800689A
:101E90001C4908601B4800681A4908601948006816
:101EA00050F48060174908601648006830F47C10D0
:101EB000144908601348006850F4E810114908609C
:101EC0000F48006850F080700D4908600C480068A9
:101ED0008001FBD50B480068800880000949086034
:101EE0000848006850F0020006490860054800688C
:101EF00010F00C000828F9D102B070470000000073
:101F000000100240041002400000FFF8FFFFF6FE40
:101F10000810024008ED00E00020024010B450F824
:101F2000041B79B10268436812180830DC0744BF0B
:101F3000A9F10104E31852F8044B43F8044B091FBC
:101F4000F9D1ECE710BC704710B507497944183156
:101F5000064C7C44163404E00A68081D5118884772
:101F60000146A142F8D110BD080000002800000081
:101F700017EDFFFF384500001800002000000000AA
:101F80009DFFFFFF18000000F4010000000000208A
:101F90000000000000F00BF8002801D0FFF7D4FF8C
:101FA0000020C046C046FFF7ABFE00F002F801205B
:101FB000704700F001B800000746384600F002F80C
:101FC000FBE7000080B5C046C046024A1100182059
:101FD000ABBEFBE7260002007461736B36207265AE
:101FE00063762069730D0A00746869732069732031
:101FF0007461736B3200000001488047014800475C
:10200000C11D000809200008C046C046C046C046A1
:10201000FFF7C0FF7461736B350D0A007461736B59
:10202000340000007461736B310D0A0076546173E3
:102030006B340000765461736B3100007461736B14
:1020400031000000765461736B3200007654617386
:102050006B350000765461736B36000049444C4583
:102060000000000008000000FFF7FEBFFFF7FEBF02
:10207000FFF7FEBFFFF7FEBFFFF7FEBFFEF7A7BEED
:10208000FFF7FEBFFEF780BEFEF756BEFFF7FEBFAE
:10209000FFF7FEBFFFF7FEBFFFF7FEBFFFF7FEBF74
:1020A000FFF7FEBFFFF7FEBFFFF7FEBFFFF7FEBF64
:1020B000FFF7FEBFFFF7FEBFFFF7FEBFFFF7FEBF54
:1020C000FFF7FEBFFFF7FEBFFFF7FEBFFFF7FEBF44
:1020D000FFF7FEBFFFF7FEBFFFF7FEBFFFF7FEBF34
:1020E000FFF7FEBFFFF7FEBFFFF7FEBFFFF7FEBF24
:1020F000FFF7FEBFFFF7FEBFFFF7FEBFFFF7FEBF14
:10210000FFF7FEBFFFF7FEBFFFF7FEBFFFF7FEBF03
:10211000FFF7FEBFFFF7FEBFFFF7FEBFFFF7FEBFF3
:10212000FFF7FEBFFFF7FEBFFFF7FEBFFFF7FEBFE3
:10213000FFF7FEBFFFF7FEBFFFF7FEBFFFF7FEBFD3
:10214000FFF7FEBFFFF7FEBFFFF7FEBFFFF7FEBFC3
:10215000FFF7FEBFFFF7FEBFFFF7FEBFFFF7FEBFB3
:10216000FFF7FEBFFFF7FEBFFFF7FEBFFFF7FEBFA3
:10217000FFF7FEBFFFF7FEBFFFF7FEBF0000000046
:10218000010203040102030406070809AAAAAAAA75
:042190000204060837
:0400000508002009C6
:00000001FF
