:020000040800F2
:1000000040490020B916000801170008051700082C
:10001000091700080D17000811170008000000005C
:10002000000000000000000000000000F30B0008CA
:100030001917000800000000AD0B00085D0B000858
:1000400025170008291700082D1700083117000888
:1000500035170008391700083D1700084117000838
:1000600045170008491700084D17000851170008E8
:1000700055170008591700085D1700086117000898
:1000800065170008691700086D1700087117000848
:1000900075170008791700087D17000881170008F8
:1000A00085170008891700088D17000891170008A8
:1000B00095170008991700089D170008A117000858
:1000C000A5170008A9170008AD170008B117000808
:1000D000B5170008B9170008BD170008C1170008B8
:1000E000C5170008C9170008CD170008D117000868
:1000F000D5170008D9170008DD170008E117000818
:10010000E5170008E9170008ED170008F1170008C7
:10011000F5170008F9170008FD1700080118000876
:1001200005180008091800080D1800081118000823
:100130002DE9F04F85B004000D0016001F00DDF81A
:100140003880DDF83C90B6B2B00000F05BFB83462F
:10015000BBF1000F0DD04C2000F054FB8246BAF1E9
:10016000000F02D0CAF830B005E0584600F0B3FBEB
:1001700001E000208246BAF1000F14D00020039065
:10018000CDF808A0CDF80490CDF800803B00B6B2C1
:1001900032002900200000F00DF8504600F05DF814
:1001A0000120049002E05FF0FF300490049805B055
:1001B000BDE8F08F2DE9F14F0C0015001E000A9FDD
:1001C000DDF82C80DDF83090D9F8300010EB850098
:1001D000001F82465FEADA0A5FEACA0A0020834605
:1001E000BBF1100F0CD21BF804001BEB090181F8C6
:1001F00034001BF80400002802D01BF1010BEFE7CC
:10020000002089F84300052F01D304200700C9F816
:100210002C7019F1040000F008FC19F1180000F02E
:1002200004FCC9F81090D7F10500C9F81800C9F806
:1002300024900020C9F84400002089F848003200CA
:100240000099504600F042FCC9F80000B8F1000FD8
:1002500001D0C8F80090BDE8F18F10B5040000F09F
:1002600063FCDFF8AC040068401CDFF8A4140860ED
:10027000DFF8A004006800280AD1DFF898040460C1
:10028000DFF88C040068012811D100F0C9F90EE0F4
:10029000DFF884040068002809D1E06ADFF87414EC
:1002A0000968C96A884202D3DFF868040460DFF88D
:1002B0006C040068401CDFF864140860DFF8600418
:1002C00000680121E26A91400843DFF85414086095
:1002D000211DDFF85004E26A142303FB020000F042
:1002E000A7FB00F02EFCDFF83004006800280FD0D8
:1002F000DFF820040068C06AE16A884208D25FF033
:100300008050DFF830140860BFF34F8FBFF36F8F5A
:1003100010BD38B504000025002C08D000F03BF8D3
:100320000021200000F00CFA00F03DF80500002D3F
:1003300008D15FF08050DFF800140860BFF34F8FE2
:10034000BFF36F8F31BD1CB5DFF88404019000202E
:10035000009000238022DFF87C140FF2A120FFF729
:10036000E7FE0400012C15D1BF2080F31188BFF3F4
:100370004F8FBFF36F8F5FF0FF30DFF85C140860C2
:100380000120DFF8941308600020DFF850140860A3
:1003900000F0B4FB13BDDFF834040068401CDFF844
:1003A0002C140860704770B50024002500F0BCFBD9
:1003B000DFF818040068401EDFF810140860DFF84A
:1003C0000C04006800285CD1DFF8440300680028B2
:1003D00057D0DFF8F403006800282AD0DFF8E803DC
:1003E000C068C068040014F1180000F04AFB201D2A
:1003F00000F047FBDFF8280300680121E26A914022
:100400000843DFF81C130860211DDFF81803E26AB7
:10041000142303FB020000F00BFBE06ADFF8F41288
:100420000968C96A8842D4D30120DFF8B413086090
:10043000CFE7002C01D000F053F9DFF8A8030668DD
:10044000002E0ED000F021F8002803D00120DFF8A4
:1004500090130860761E002EF4D10020DFF884137C
:100460000860DFF87C03006800280AD0012005003E
:100470005FF08050DFF8C0120860BFF34F8FBFF30A
:100480006F8F00F05EFB280070BD2DE9F041002663
:10049000DFF838030068002873D1DFF894020068A1
:1004A000471CDFF88C020760002F16D1DFF83803F5
:1004B00000688046DFF834030068DFF82C1308601A
:1004C000DFF82803C0F80080DFF824030068401C30
:1004D000DFF81C13086000F003F9DFF8FC02006885
:1004E000874240D3DFF8000300680068002805D188
:1004F0005FF0FF30DFF8E012086034E0DFF8E80278
:100500000068C068C068040060680500AF4203D29C
:10051000DFF8C402056026E0201D00F0B2FAA06AF0
:10052000002803D014F1180000F0ABFADFF8F00156
:1005300000680121E26A91400843DFF8E411086095
:10054000211DDFF8E001E26A142303FB020000F042
:100550006FFAE06ADFF8BC110968C96A8842C1D342
:1005600001200600BEE7DFF8BC016A490968C96AD4
:10057000142202FB01000068022809D301200600B2
:1005800006E0DFF860020068401CDFF858120860DF
:10059000DFF84C020068002801D00120060030007E
:1005A000BDE8F081DFF824020068002804D00120B3
:1005B000DFF82C12086020E00020DFF82412086029
:1005C00057490968B1FA81F1D1F11F010800DFF83C
:1005D0005421142303FB002211004A6852684A6028
:1005E0004A6811F108039A4202D14A6852684A6087
:1005F0004968C968DFF8CC211160704710B5040064
:1006000000F039F8474800680228F9D35FF08050BD
:10061000DFF824110860BFF34F8FBFF36F8FEFE750
:1006200010B500200400052C07D23E48142101FB20
:10063000040000F0EBF9641CF5E7DFF8B80100F006
:10064000E5F9DFF8B40100F0E1F9DFF87C0100F032
:10065000DDF9354800F0DAF9DFF8E00000F0D6F90E
:10066000DFF89001DFF880110860DFF88C01DFF817
:100670007C11086010BD38B52C480068002825D0D2
:10068000FFF789FE28480068002801D1012400E016
:100690000024FFF788FE002CEED100F045FA224836
:1006A000C068C0680500281D00F0EBF91848006814
:1006B000401E174908601D480068401E1B4908601D
:1006C00000F03FFA280000F002F8D5E731BD10B580
:1006D0000400206B00F0FFF8200000F0FCF810BDD3
:1006E000DFF8041109680968002905D15FF0FF31BE
:1006F000DFF8E420116009E0DFF8EC100968C96850
:10070000C96808004168DFF8D02011607047000018
:1007100010450020004500201C4500202C450020ED
:100720001845002018440020B84400200C45002043
:100730001445002004ED00E004ED00E0CC4400206E
:10074000F8B504000D00254807681E480068001D24
:1007500000F097F900280BD11A480068274909686A
:100760000122C06A12FA00F031EA00002349086051
:1007700014F1010F08D1002D06D012480068011DA8
:100780001F4800F055F91BE0E01906000D4800680D
:100790004660BE4207D20B480068011D134800683E
:1007A00000F052F90CE007480068011D0E4800688F
:1007B00000F04AF908480068864201D206480660FF
:1007C000F1BD000000450020A44400203845002071
:1007D00034450020F4160008304500201445002060
:1007E0002445002020450020044500200845002025
:1007F000284500207C44002090440020184500201B
:10080000CC4400202DE9F04104005FF00008FFF720
:10081000C2FD77480068002801D100F080F87548D3
:100820000068044252D1002C0AD0734800680419B1
:1008300014F0070F04D014F1080014F00701441A53
:10084000002C43D06D480068A0423FD36C4806009E
:100850006B48006805006868A04205D22868002837
:1008600002D02E002D68F6E76148006885422DD041
:1008700030686149096808188046286830605E4819
:10088000006840006968091B884208D260190700A7
:100890006868001B78606C60380000F077F8574893
:1008A00000686968401A554908605448006855490D
:1008B0000968884203D25148006852490860686854
:1008C0004C4909680843686000202860FFF76BFD09
:1008D0004046BDE8F08170B504002600002C1DD014
:1008E00045480068361A3500686842490968084278
:1008F00014D02868002811D168683E4909688843E7
:100900006860FFF748FD3D480068696808183B4982
:100910000860280000F03AF8FFF745FD70BD30B4DC
:100920004FF48843384C220012F0070F05D0D21D37
:10093000D208D2009B1A344CE3181100304C2160CD
:1009400000242F4D6C605C1822002B4C2468121B75
:10095000D208D200264C22600024254D2D686C6000
:100960000024234D2D682C600800141A4460204C8C
:10097000246804604468234D2C6044681F4D2C603B
:100980005FF000441B4D2C6030BC704710B41C4B12
:100990001A001368834201D21268FAE71100536803
:1009A0005B18834204D153684468E3185360100015
:1009B000010043685B181468A34211D113680C4C02
:1009C0002468A34208D0436814686468E31843604D
:1009D00013681B68036005E0054B1B68036001E0BA
:1009E00013680360824200D0106010BC70470000A2
:1009F000E8440020F4440020FC160008EC440020E9
:100A0000E0440020F04400201800002010F108010C
:100A100041605FF0FF31816010F10801C16010F1A9
:100A200008010161002101607047002101617047E8
:100A300042684A6093688B6093685960916008616E
:100A400003685B1C0360704710B40B6813F1010F5F
:100A500002D10469220008E010F108042200546861
:100A60002468A34201D35268F9E754684C604C688B
:100A7000A1608A60516008610468641C046010BC55
:100A80007047010008698A684B689A604A688B68F9
:100A90005A6042688A4201D18A68426000220A6133
:100AA0000268521E02600068704750F8041B61B172
:100AB00050F8042BD30744BFA9F101039A1800236F
:100AC000091F42F8043BFAD1EFE77047001F5FF0BF
:100AD00080730360001F4B085B000360001F0FF270
:100AE0000D0303601438026020387047BF2080F384
:100AF0001188BFF34F8FBFF36F8FFEE780B5254896
:100B0000006850F47F00234908602248006850F0D4
:100B10007F402049086000F035F800201E49086039
:100B200000F077F8002002BDBF2080F31188BFF3EA
:100B30004F8FBFF36F8F18480068401C164908603C
:100B4000704715480068401E134908601248006845
:100B5000002802D1002080F31188704780B5BF20A3
:100B600080F31188BFF34F8FBFF36F8FFFF78DFCBA
:100B7000002803D05FF0805008490860002080F30F
:100B8000118801BD0648074908600720064908602A
:100B90007047000020ED00E01000002004ED00E0B0
:100BA0003F19010014E000E010E000E0EFF30980DD
:100BB000BFF36F8F1D4B1A6820E9F00F106008B566
:100BC0004FF0BF0080F31188BFF34F8FBFF36F8FDB
:100BD000FFF7E8FC4FF0000080F31188BDE8084003
:100BE00019680868B0E8F00F80F30988BFF36F8FC9
:100BF00070470E4B19680868B0E8F00F80F3098859
:100C0000BFF36F8F4FF0000080F311884EF00D0E90
:100C1000704707480068006880F3088862B661B6CC
:100C2000BFF34F8FBFF36F8F00DF00000045002040
:100C300008ED00E0DFF8E402006850F00100DFF8A2
:100C4000DC120860DFF8D8020068DFF8D81208402C
:100C5000DFF8CC120860DFF8C4020068DFF8C812C1
:100C60000840DFF8B8120860DFF8B002006830F41E
:100C70008020DFF8A8120860DFF8A402006830F4D2
:100C8000FE00DFF89C1208605FF41F00DFF89C1282
:100C900008607047DFF88412096831F48031DFF8AA
:100CA0007C221160DFF87412096831F48021DFF8CA
:100CB0006C2211600100B1F5803F03D0B1F5802FA7
:100CC00009D011E0DFF85412096851F48031DFF8DF
:100CD0004C22116008E0DFF84412096851F4A021A9
:100CE000DFF838221160FFE7704738B50020009028
:100CF00000240025312000F0E8F805000098401C91
:100D000000900098B0F5A06F02D0EDB2002DF1D0A8
:100D1000312000F0DAF8002802D00120040001E0C0
:100D2000002004002000C0B232BD0022DFF8F03104
:100D30001B681A0032F47C1251EA00031A43DFF8F0
:100D4000E0311A607047C0B2DFF8E4110860704704
:100D50000021734A12681100890889000143704A12
:100D6000116070476E48006810F00C007047002159
:100D70006B4A1268110031F0F0010143684A1160BA
:100D800070470021664A1268110031F4E0610143A6
:100D9000634A116070470021614A1268110031F402
:100DA000605151EAC0015E4A1160704770B4002181
:100DB0000022002300245A4D2D6815F00C0529004F
:100DC0000D00002D04D0042D05D0082D06D026E0FE
:100DD000594D056025E0584D056022E0504D2D68C5
:100DE00015F470152A004E4D2D6815F480352B0032
:100DF000920C921C002B04D1504D05FB02F50560AE
:100E00000CE0474D2D68AD0304D54C4D05FB02F5B4
:100E1000056003E0484D05FB02F5056001E0464D25
:100E200005603F4D2D6815F0F00529000909444D76
:100E30004D5D2C0005682E00E6404660384D2D685B
:100E400015F4E0652900090A3D4D4D5D2C0045680B
:100E50002E00E6408660324D2D6815F4605529005D
:100E6000C90A374D4D5D2C0045682E00E640C6602E
:100E70002B4D2D6815F440452900890B314D4D5DF2
:100E80002C00C568B5FBF4F5056170BC7047C9B2AC
:100E9000002905D02C4A126802432B4B1A6004E04B
:100EA000294A12688243284B1A607047C9B2002948
:100EB00005D0264A12680243244B1A6004E0234AF4
:100EC00012688243214B1A60704710B4010000225F
:100ED00000230020C9B24C09E4B22200012A03D148
:100EE0000E4C2468230008E0022A03D1114C246828
:100EF000230002E0164C24682300C9B211F01F043D
:100F000022001C00D440E40702D50124200001E0A7
:100F100000242000C0B210BC704700000010024046
:100F2000041002400000FFF8FFFFF6FE0810024028
:100F3000600042422010024000127A0000093D0089
:100F40000000002014000020181002401C10024075
:100F50002410024010B5FFF76DFE5FF48030FFF7FC
:100F600099FEFFF7C2FE0400E4B2012C24D1102048
:100F700000F0ECF8022000F0DDF80020FFF7F7FEAB
:100F80000020FFF708FF4FF48060FFF7FAFE5FF4E0
:100F9000E0115FF48030FFF7C8FE0120FFF7D3FEB9
:100FA0003920FFF792FF0028FAD00220FFF7D0FE89
:100FB000FFF7D8FE0828FBD101214CF6FD10FFF702
:100FC00066FF01214948FFF771FF10BD10B586B0DB
:100FD00004004FF40070ADF8000003208DF802000B
:100FE00018208DF8030000A9414800F0C1F84FF423
:100FF0008060ADF8000004208DF8030000A93C4893
:1010000000F0B6F802940020ADF80C000020ADF816
:101010000E000020ADF810000020ADF814000C20E8
:10102000ADF8120002A9334800F03EF90121314821
:1010300000F0ACF9012240F225512E4800F0B4F93D
:1010400025208DF8040001208DF8070001208DF87F
:10105000050001208DF8060001A800F0E3F906B0B4
:1010600010BD70B504000D000026AE420DDA2178E7
:1010700089B2204800F0C3F9641C80211D4800F0AB
:10108000C2F90128F9D1761CEFE770BD10B5040054
:1010900005211948FFF7E5FF4FF47A70FFF739F99A
:1010A000F6E710B5040005211448FFF7DAFF4FF406
:1010B0007A70FFF72EF9F6E700B583B0104801907B
:1010C0000120009000234FF400720E490E48FFF7F4
:1010D0002FF80E4801900120009000234FF4007279
:1010E0000B490C48FFF724F807BD00000E40200014
:1010F0000008014000380140D4160008DC16000842
:10110000F8440020E41600088D100008FC4400207C
:10111000EC160008A310000880B5FFF71BFF5FF472
:10112000E130FFF753FFFFF7C7FFFFF70CF900208F
:1011300002BD00000021DFF834201268110011F018
:1011400038010143DFF8242011607047DFF81C10DC
:10115000096831F01001DFF814201160DFF80C107D
:1011600009680143DFF80420116070470020024045
:10117000F0B500270022002300240025002691F866
:1011800003C01CF00F0C674691F803C05FEACC6CFB
:1011900003D591F802C05CEA070791F800C05FEA46
:1011A0000C6C3AD0D0F800C065465FF0000C634686
:1011B000082B31D25FF0010C1CFA03FC6446B1F835
:1011C00000C014EA0C0C6246A24223D15FEA830CF1
:1011D00064465FF00F0C1CFA04FC6646B54317FA30
:1011E00004FC5CEA050591F803C0BCF1280F06D1A8
:1011F0005FF0010C1CFA03FCC0F814C00AE091F87F
:1012000003C0BCF1480F05D15FF0010C1CFA03FCD0
:10121000C0F810C05B1CCBE70560B1F800C0BCF1A2
:10122000FF0F3FDDD0F804C065465FF0000C634659
:10123000082B36D25FF0010C13F1080E1CFA0EFCDD
:101240006446B1F800C014EA0C0C6246A24226D1F2
:101250005FEA830C64465FF00F0C1CFA04FC6646E0
:10126000B54317FA04FC5CEA050591F803C0BCF12C
:10127000280F07D15FF0010C13F1080E1CFA0EFCC9
:10128000C0F814C091F803C0BCF1480F07D15FF05B
:10129000010C13F1080E1CFA0EFCC0F810C05B1C08
:1012A000C6E74560F0BD00002DE9F04786B00400B8
:1012B0000D00002600275FF000085FF000095FF0D6
:1012C000000AA8890028A246208A06004CF6FF7072
:1012D0000640E88806432682A08906004EF6F310F1
:1012E0000640A88829890843698908430643A681DE
:1012F000A08A06004FF6FF400640A8890643A68252
:1013000000A8FFF753FD2048824502D1039807004B
:1013100001E002980700A089000408D5192000FB0D
:1013200007F029684900B0FBF1F0804607E019207A
:1013300000FB07F029688900B0FBF1F080466420CB
:10134000B8FBF0F0000106003009642101FB1080B9
:101350008146A089000409D55FEAC90032306421C2
:10136000B0FBF1F010F00700064308E05FEA091057
:1013700032306421B0FBF1F010F00F0006432681FB
:1013800006B0BDE8F087000000380140C9B200296E
:1013900004D0828952F40052828104E082894DF6A1
:1013A000FF731A4082817047F0B4002300240025A7
:1013B000002689B240F66A17B94206000F00FFB254
:1013C0007F09FFB23B0089B211F01F073C000127E3
:1013D000A7403D00012B01D10C3604E0022B01D1C6
:1013E000103600E01436D2B2002A03D037682F43FB
:1013F000376002E03768AF433760F0BC7047CA051A
:10140000D20D828070470200002089B2B1F5007FC2
:1014100013880B4202D00123180001E000231800BA
:10142000C0B2704770B4002400220F23C178002995
:1014300022D01749096811F4E061D1F5E061090A89
:101440000C00D4F104010A0019000B00E3404178BC
:1014500091400C00817819400C4324010D49057816
:101460006C540121057815F01F05A9400A4D067836
:10147000761145F8261009E00121057815F01F05C1
:10148000A940064D0678761145F8261070BC7047C5
:101490000CED00E000E400E000E100E080E100E0AD
:1014A00080B54F48006850F001004D4908604D4834
:1014B00000684D4908404B490860494800684B495D
:1014C0000840474908604648006830F48020444995
:1014D00008604448006830F4FE00424908605FF448
:1014E0001F004349086000F005F85FF000604149C3
:1014F000086001BD80B500F001F801BD82B0002098
:101500000190002000903648006850F48030344943
:1015100008603348006810F4003000900198401CC7
:1015200001900098002803D10198B0F5A06FF0D188
:101530002B480068800302D50120009001E00020C4
:1015400000900098012847D12B48006850F0100007
:1015500029490860284800688008800026490860FA
:101560002548006850F00200234908601D480068C3
:101570001C4908601B4800681A490860194800683F
:1015800050F48060174908601648006830F47C10F9
:10159000144908601348006850F4E81011490860C5
:1015A0000F48006850F080700D4908600C480068D2
:1015B0008001FBD50B48006880088000094908605D
:1015C0000848006850F002000649086005480068B5
:1015D00010F00C000828F9D102B07047000000009C
:1015E00000100240041002400000FFF8FFFFF6FE6A
:1015F0000810024008ED00E00020024010B450F84E
:10160000041B79B10268436812180830DC0744BF34
:10161000A9F10104E31852F8044B43F8044B091FE5
:10162000F9D1ECE710BC704710B50749794418317F
:10163000064C7C44163404E00A68081D511888479B
:101640000146A142F8D110BD0800000028000000AA
:101650005BF4FFFF2445000018000020000000009C
:101660009DFFFFFF18000000AC01000000000020FB
:101670000000000000F00BF8002801D0FFF7D4FFB5
:101680000020C046C046FFF747FD00F002F80120E9
:10169000704700F001B800000746384600F002F835
:1016A000FBE7000080B5C046C046024A1100182082
:1016B000ABBEFBE726000200014880470148004717
:1016C000A1140008C9160008C046C046C046C0465E
:1016D000FFF7D0FF7461736B310000007461736BAE
:1016E00032000000765461736B31000076546173F0
:1016F0006B32000049444C45000000000800000027
:10170000FFF7FEBFFFF7FEBFFFF7FEBFFFF7FEBF0D
:10171000FFF7FEBFFFF76DBAFFF7FEBFFFF746BA50
:10172000FFF71CBAFFF7FEBFFFF7FEBFFFF7FEBFD4
:10173000FFF7FEBFFFF7FEBFFFF7FEBFFFF7FEBFDD
:10174000FFF7FEBFFFF7FEBFFFF7FEBFFFF7FEBFCD
:10175000FFF7FEBFFFF7FEBFFFF7FEBFFFF7FEBFBD
:10176000FFF7FEBFFFF7FEBFFFF7FEBFFFF7FEBFAD
:10177000FFF7FEBFFFF7FEBFFFF7FEBFFFF7FEBF9D
:10178000FFF7FEBFFFF7FEBFFFF7FEBFFFF7FEBF8D
:10179000FFF7FEBFFFF7FEBFFFF7FEBFFFF7FEBF7D
:1017A000FFF7FEBFFFF7FEBFFFF7FEBFFFF7FEBF6D
:1017B000FFF7FEBFFFF7FEBFFFF7FEBFFFF7FEBF5D
:1017C000FFF7FEBFFFF7FEBFFFF7FEBFFFF7FEBF4D
:1017D000FFF7FEBFFFF7FEBFFFF7FEBFFFF7FEBF3D
:1017E000FFF7FEBFFFF7FEBFFFF7FEBFFFF7FEBF2D
:1017F000FFF7FEBFFFF7FEBFFFF7FEBFFFF7FEBF1D
:10180000FFF7FEBFFFF7FEBFFFF7FEBFFFF7FEBF0C
:10181000FFF7FEBF00000000010203040102030401
:0C18200006070809AAAAAAAA02040608E2
:04000005080016C910
:00000001FF
